:100000000C945D000C9485000C9485000C94850084
:100010000C9485000C9485000C9485000C9485004C
:100020000C9485000C9485000C9485000C9485003C
:100030000C9485000C9485000C9485000C9485002C
:100040000C9437020C9485000C94A7020C94810246
:100050000C9485000C9485000C9485000C9485000C
:100060000C9485000C9485000000000024002700FB
:100070002A0000000000250028002B0004040404CE
:100080000404040402020202020203030303030342
:10009000010204081020408001020408102001021F
:1000A00004081020000000080002010000030407FB
:1000B0000000000000000000A60311241FBECFEFC7
:1000C000D8E0DEBFCDBF11E0A0E0B1E0E6EBF7E0A5
:1000D00002C005900D92A831B107D9F721E0A8E13F
:1000E000B1E001C01D92AE3BB207E1F710E0CDE5F3
:1000F000D0E004C02197FE010E94D303CC35D10784
:10010000C9F70E94D9020C94D9030C94000090E026
:10011000FC01EC55FF4F2491FC01E057FF4F349157
:10012000FC01E458FF4FE491EE23C9F0222339F09B
:10013000233001F1A8F4213019F1223029F1F0E047
:10014000EE0FFF1FEE58FF4FA591B4918FB7F894B3
:10015000EC91611126C030953E233C938FBF0895EA
:100160002730A9F02830C9F0243049F78091800069
:100170008F7D03C0809180008F7780938000DFCFD8
:1001800084B58F7784BDDBCF84B58F7DFBCF809125
:10019000B0008F778093B000D2CF8091B0008F7D78
:1001A000F9CF3E2BDACF3FB7F8948091BA01909106
:1001B000BB01A091BC01B091BD0126B5A89B05C0B3
:1001C0002F3F19F00196A11DB11D3FBFBA2FA92FD6
:1001D000982F8827BC01CD01620F711D811D911DD3
:1001E00042E0660F771F881F991F4A95D1F708953F
:1001F0008F929F92AF92BF92CF92DF92EF92FF9237
:100200004B015C010E94D3006B017C010E94D30072
:100210006C197D098E099F09683E7340810591051F
:10022000A8F321E0821A9108A108B10888EEC80E4F
:1002300083E0D81EE11CF11C81149104A104B104D7
:1002400029F7FF90EF90DF90CF90BF90AF909F90F5
:100250008F900895AF92BF92CF92DF92EF92FF926C
:100260000F931F93CF93DF936C017B018B01040FDE
:10027000151FEB015E01AE18BF08C017D10759F07A
:100280006991D601ED91FC910190F081E02DC601BC
:100290000995892B79F7C501DF91CF911F910F91B6
:1002A000FF90EF90DF90CF90BF90AF900895FC014A
:1002B000538D448D252F30E0842F90E0821B930BCB
:1002C000541710F0CF96089501970895FC01918D71
:1002D000828D981761F0A28DAE0FBF2FB11D5D9674
:1002E0008C91928D9F5F9F73928F90E008958FEF16
:1002F0009FEF0895FC01918D828D981731F0828DCA
:10030000E80FF11D858D90E008958FEF9FEF089520
:10031000FC01918D228D892F90E0805C9F4F821B84
:1003200091098F739927089588E191E00E948801CF
:1003300021E0892B09F420E0822F089580E090E0ED
:10034000892B29F00E94940181110C9400000895DA
:10035000FC01A48DA80FB92FB11DA35ABF4F2C913A
:10036000848D90E001968F739927848FA689B78931
:100370002C93A089B1898C91837080648C93938D28
:10038000848D981306C00288F389E02D80818F7DCB
:1003900080830895EF92FF920F931F93CF93DF9383
:1003A000EC0181E0888F9B8D8C8D98131AC0E889B1
:1003B000F989808185FF15C09FB7F894EE89FF8980
:1003C0006083E889F98980818370806480839FBF1E
:1003D00081E090E0DF91CF911F910F91FF90EF901E
:1003E0000895F62E0B8D10E00F5F1F4F0F7311272E
:1003F000E02E8C8D8E110CC00FB607FCFACFE88969
:10040000F989808185FFF5CFCE010E94A801F1CF47
:10041000EB8DEC0FFD2FF11DE35AFF4FF0829FB7DC
:10042000F8940B8FEA89FB8980818062CFCFCF93CC
:10043000DF93EC01888D8823B9F0AA89BB89E8890C
:10044000F9898C9185FD03C0808186FD0DC00FB6B2
:1004500007FCF7CF8C9185FFF2CF808185FFEDCF30
:10046000CE010E94A801E9CFDF91CF9108951F929C
:100470000F920FB60F9211242F933F938F939F9358
:10048000AF93BF938091B6019091B701A091B8014D
:10049000B091B9013091B50123E0230F2D3758F504
:1004A0000196A11DB11D2093B5018093B6019093D3
:1004B000B701A093B801B093B9018091BA019091AE
:1004C000BB01A091BC01B091BD010196A11DB11D60
:1004D0008093BA019093BB01A093BC01B093BD017E
:1004E000BF91AF919F918F913F912F910F900FBE30
:1004F0000F901F90189526E8230F0296A11DB11D9D
:10050000D2CF1F920F920FB60F9211242F933F93C9
:100510004F935F936F937F938F939F93AF93BF930B
:10052000EF93FF9388E191E00E94A801FF91EF9182
:10053000BF91AF919F918F917F916F915F914F91FB
:100540003F912F910F900FBE0F901F9018951F9203
:100550000F920FB60F9211242F938F939F93EF93C7
:10056000FF93E0912801F09129018081E0912E0113
:10057000F0912F0182FD1BC09081809131018F5F2E
:100580008F7320913201821741F0E0913101F0E048
:10059000E85EFE4F958F80933101FF91EF919F911F
:1005A0008F912F910F900FBE0F901F901895808103
:1005B000F4CF789484B5826084BD84B5816084BDB5
:1005C00085B5826085BD85B5816085BD80916E00F1
:1005D000816080936E001092810080918100826022
:1005E000809381008091810081608093810080915F
:1005F00080008160809380008091B100846080934E
:10060000B1008091B00081608093B00080917A0049
:10061000846080937A0080917A00826080937A006F
:1006200080917A00816080937A0080917A0080685E
:1006300080937A001092C100E0912801F091290185
:1006400082E08083E0912401F09125011082E09105
:100650002601F09127018FEC808310923001E09108
:100660002C01F0912D0186E08083E0912A01F09128
:100670002B01808180618083E0912A01F0912B0120
:10068000808188608083E0912A01F0912B01808134
:1006900080688083E0912A01F0912B0180818F7D19
:1006A0008083C2E1D1E0899190E0FC01E057FF4FE7
:1006B000249184589F4FFC018491882399F090E005
:1006C000880F991FFC01E859FF4FA591B491FC01D7
:1006D000EE58FF4F859194918FB7F894EC91E22BEF
:1006E000EC938FBFF1E0C731DF07E9F680E0C82E59
:1006F00080E0D82E02E111E0F801F1908F0161E075
:100700008F2D0E94870064E670E080E090E00E94F8
:10071000F80060E08F2D0E94870060E971E080E0C2
:1007200090E00E94F800C017D10731F768EB7BE03A
:1007300080E090E00E94F800C114D104D9F20E9438
:1007400094018823B9F20E940000D4CFE8E1F1E0DF
:100750001382128288EE93E0A0E0B0E08483958358
:10076000A683B78384E091E09183808385EC90E059
:100770009587848784EC90E09787868780EC90E06B
:10078000918B808B81EC90E0938B828B82EC90E05C
:10079000958B848B86EC90E0978B868B118E128ED6
:1007A000138E148E0895EE0FFF1F0590F491E02D27
:0607B0000994F894FFCF4C
:1007B60000000000CA012A015701170288016601DC
:0807C6007A01060708090A0088
:00000001FF
